:020000040000FA
:100000000C9434050C945C050C945C050C94EF1571
:100010000C94EF150C94EF150C945C050C945C0596
:100020000C945C050C945C050C945C050C945C05CC
:100030000C945C050C945C050C945C050C945C05BC
:100040000C94A5150C945C050C9473150C944D152B
:100050000C945C050C945C050C945C050C945C059C
:100060000C9467160C945C05000000002400270027
:100070002A0000000008000201000003040700003D
:100080000000000000002D2D2073657269616C2056
:100090006973206E6F7420636F6E66696775726531
:1000A00064002020676574436865636B53756D2831
:1000B00029002053746174757320204F4B3A20003F
:1000C000202120537461747573206D6179626520FD
:1000D0006E6F74204F4B2021200020232054656D2B
:1000E00070657261747572653F2000202320505046
:1000F0004D20554152543A20004D485A3A205368F9
:100100006F756C642062653A20004D485A3A20525F
:10011000656365697665643A20004D485A3A204324
:100120006865636B73756D206E6F74204F4B210093
:100130000020200020203C3C20004D485A3A202D31
:1001400020736B697070696E6720756E6578706575
:10015000637465642072656164696E67733A004E0A
:100160006F20726573706F6E73652061667465725F
:10017000203130207365636F6E64730020203E3E33
:100180002053656E64696E6720434F32207265713B
:1001900075657374002D2D207265616420434F32A4
:1001A0002075617274202D2D2D002D2D2073657208
:1001B00069616C206973206E6F7420636F6E66696D
:1001C0006775726564000A20232050504D205057F7
:1001D0004D3A20002D2D2072656164696E672043C1
:1001E0004F322066726F6D2070776D20002D2D20AC
:1001F00070776D206973206E6F7420636F6E66690F
:10020000677572656420002D2D2073657269616CBD
:10021000206973206E6F7420636F6E6669677572F4
:100220006564004D485A3A3A697350726548656191
:1002300074696E672829203D3E20554E4B4E4F571E
:100240004E2053454E534F5200000000002300261D
:1002500000290000000000250028002B00040404F1
:10026000040404040402020202020203030303035F
:10027000030102040810204080010204081020013C
:100280000204081020BF0003020304030504060A49
:1002900000FE07FE07000142028807C42005006235
:1002A0000721073943C7A00422079B52476209234D
:1002B0000E3D424F294906A53228A52401240C3DB4
:1002C0004257B6D4B624D92200250C3D424FA4741F
:1002D000ABB4480900260D3D424F9644495649A407
:1002E000480927061953C7002808BB425752AA15C8
:1002F0002909BB424756AA94002A0A2D464796541C
:1003000006A52D2B0A2D4657180D5218012C079BB8
:100310003E8F52022D060D4EC7202E089B3E4FB237
:1003200024002F083D4267AD6308300B3D425796CD
:10033000D46C492D02310A3D4257262561D3203223
:100340000C3D42CF92859194858300330C3D42C78A
:10035000206699AA250B00340C3D425F2625A56432
:10036000D0C204350B3D42C73131855AB200360C3C
:100370003D4297948589494B1600370B3D42C72073
:10038000666156CC00380C3D42CF9269C99269C96A
:1003900002390C3D42CF92498A126691043A0ABB57
:1003A0003E4FB2A4C992003B09BB3E4FB2A44A09DA
:1003B0003C08BC425FD4D8003D081D4AC7A00E02CD
:1003C0003E08BC4247D8D4063F0A3D42CF9235E6AC
:1003D0005004400C3D42CF92494B62491700410CFA
:1003E0003D425796D4B461C8B400420D3D42C71097
:1003F00055A264AA448302430A3D42CF92896DC943
:1004000002440F3D42C71055A2244AA2241A1400E8
:10041000450B3D42C7311C92301C04460A3D42C781
:10042000311C92B008470B3D42CF9289A52D59004F
:10043000480A3D4247661B86CC164908BB42C71294
:1004400075194A0A3D42D716B64491044B0D3D42F8
:10045000472625252D892A59004C083D4247D8E3D7
:10046000204D0B3D4247A62D4BA2D9024E0C3D42DA
:1004700047A64D4A226D5A004F0A3D42CF92794B12
:100480001600500C3D42C79064DAA0844500510A22
:10049000453ECF9279A9AC01520D3D42C79064DA36
:1004A000A0942A5900530B3D42CF92A9AB962C0041
:1004B00054093D42C720853D0155093D4247E65B51
:1004C000B200560D3D4247664B4A499464110057AD
:1004D0000A3D4247E69228C92D580B3D4247A625C2
:1004E000B54A4D0B590A3D4247A625B5B0095A0AEF
:1004F0003D42C720661D07015B08BB42C710751A45
:100500005C083D424798760C5D08BB42C7D4690839
:100510005E081D525796D4025F060D3EC720600646
:10052000125B4714610A2D42CF9A0C5A3204620BB7
:100530003D424758316993A200630A2D42CF928908
:1005400059B200640A3D4267C5B4498A12650A2D52
:1005500042CF920D43BA00660B3D429754C986289C
:10056000AC01670C3D3ACFA069C9106AC902680A9C
:100570003D4247583169B6006908BB424F28B50C67
:100580006A0BCC3A5FACD5242951006B0B3D424736
:10059000589392A992056C08BB4287D4CB006D0B8F
:1005A0002D4287D2A2244AA2056E092D424762D26B
:1005B0006C016F092D42CF92D99205700C3D3A47DC
:1005C00062D22645094300710A3D3A8F699314258A
:1005D0002C72092D424762128B0073092D42CF9273
:1005E0001E1400740C3D424F980D51588A1400752A
:1005F000092D4247E6A42801760B2D4247A625A5E2
:10060000248B00770A2D42476649942E00780A2DE4
:10061000424796D42AB500790C3D3A476652945029
:100620004B16007A092D42C7A0B50D027B0ABC42C9
:1006300097122662140A7C063943C7217D0BBC42FF
:100640008718854A9848007E091D524FA4245202FB
:10065000A005006207A1073943473208A20E3D3EBC
:10066000573628511225D9104500A30C3D42975406
:10067000C9B630521400A40B2D4247964C49B464BD
:1006800001A50D453E47A625B56890C21200A606F5
:100690003943C732A70B453ECF124E9DC66401A811
:1006A000068B5E4712A90D3D42CF9229C9A4245A58
:1006B000B200AA0AB446CF10294A7108AB0C2E42E8
:1006C00057254AA22CCAA200AC07944AC79005AD90
:1006D000068C4EC710AE0C3D42CF920DC93469C98D
:1006E00002AF060D5EC720B0079B524F1700B10B3B
:1006F000354257180D52180D02B209AC4E8F123503
:100700000D01B309AC4EC798884302B406125B8F43
:1007100002B50A353E47669B142504B60F3D42CF0D
:1007200030244392285112255112B706094F470031
:10073000B806123B8F02B908AB4E4F225506BA0AD3
:10074000B4468F1249893A04BB0D2E42479445594D
:100750009444491401BC0D4E3E4FA816A7504BA21D
:10076000210DBD0C4E3E4FA816973049C370BE0EEA
:100770004D3E879AA591944949328401BF0A3D4272
:10078000570E8559CB02C00C45424F9A2D99360C15
:100790009916C10C45425F6DC9B461C8B400C20D61
:1007A00045425796444BA60D43A605C30D45424FFF
:1007B000A4484BA60D43A605C40C45424F1D583214
:1007C0006D18322DC50D45425796444BA60D43A6D4
:1007D00005C60C3E42D790949A86216A1AC70B4DE3
:1007E0003ACF92896DC95603C80C45424F368CE109
:1007F0009084E120C90C45425F328CE19084E12075
:10080000CA0C454257348CE19084E120CB0C454220
:100810004F6518C32109C341CC0AC34247962C51E6
:10082000CB00CD0AC34257922C51CB00CE0AC34213
:100830004F6548A29601CF0AC34247922D51CB0083
:10084000D00E3D42C71055A2212925D1A000D10CC0
:10085000454257D26D521269D302D20B45424F9A8C
:100860002D995BB200D30A45425F6DC9DC9205D475
:100870000C45425796444BE6962C00D50B45425703
:10088000D2B4646EC902D60B45424F1D5832B764CC
:1008900001D70A2D424796D42AB500D80C3D42CF45
:1008A000125D92694A1600D90A45424F1A65DE92D6
:1008B00005DA0A45425F29F3962C00DB0B454257C7
:1008C00096C4995BB200DC0A45424F39F3962C007E
:1008D000DD0B45425F29D3925A5802DE0C3D424758
:1008E0003824D9A0844500DF0D3D42CF924949A963
:1008F00092290A00E00C45424F9A236B3268C910D6
:10090000E10C45425F1D5993414B8600E20D454283
:100910005796E4C09A0C5A3204E30D454257D20E62
:10092000ACC9A0254300E40C3D424F1D5893414BF8
:100930008600E50D4542579664D99A0C5A3204E672
:100940000C2E42CF1026C930658300E70B3D3ACF0D
:10095000928959B2D500E80C45424F9A234B360C88
:10096000E902E90C45425F1D59B261481700EA0DE2
:1009700045425796E4C0920D43BA00EB0C3D424FFE
:100980001D58B261481700EC09C34247164A2D03AF
:10099000ED08C3424F556A19EE08C3424F9BD4324B
:1009A000EF09BB424792492D03F00B3D42872A2DA8
:1009B000992D5900F10B454257D29C98345B00F2B7
:1009C0000C45424F9A234B664B1600F30B45425F92
:1009D0001D59325BB200F40C45425796E4C092D9DF
:1009E0009205F50C454257D20E2C992D5900F60B65
:1009F0003D424F1D58325BB200F70A2D46570E0C90
:100A00003A1001F80B2D42CF202DC9342800F90BE4
:100A100045424F9A039993A204FA0A45425F1DC8C2
:100A20009C1425FB0B45425796C49993A204FC0ADB
:100A30003D424F3973529400FD0D4D3A5F293329E1
:100A40004AA8250B00FE0C453A473824996D50C240
:100A500010FF0D4D3A4F3933294AA8250B000000ED
:100A60000004FFFF0000CB1711241FBECFEFD8E01A
:100A7000DEBFCDBF25E0AAE0B2E001C01D92A232E8
:100A8000B207E1F712E0A0E0B1E0EEE2F9E402C063
:100A900005900D92AA30B107D9F715E0C4E3D5E06F
:100AA00004C02197FE010E949622C333D107C9F7E3
:100AB0000E9493190C9495240C940000662329F04D
:100AC0006A3019F0862F90E008958FEF9FEF089518
:100AD000CF92DF92EF92FF920F931F93CF93DF930A
:100AE000EC01842F8770E1E0F0E0082E01C0EE0FEA
:100AF0000A94EAF73E2F7E0199E7E90EF11CD7012F
:100B00009C9110E0923018F41E2F913029F150E0A2
:100B1000487FE8ADF9ADC880D980D60150969C9148
:100B2000949F6001959FD00C11246C0D7D2D711D3B
:100B3000DF01A60FB71F011115C08C91812B8327F0
:100B40008D932150D1F7DF91CF911F910F91FF909D
:100B5000EF90DF90CF90089530E0D9CF110F330F91
:100B6000222389F39C91912B93279C938F5F87700D
:100B700021508111F3CF9CADA90FB11DF7019081D8
:100B8000923028F4913009F031E011E0E9CF31E002
:100B9000E7CF80E0089580E0089581E08093180514
:100BA00008959B01DC011896ED91FC9141E067E10D
:100BB00009948B589F4FFC0180818F5F0895AF92FD
:100BC000BF92CF92DF92EF92FF920F931F93CF933A
:100BD000DF936C017B018B01040F151FEB015E019C
:100BE000AE18BF08C017D10759F06991D601ED9131
:100BF000FC910190F081E02DC6010995892B79F7D0
:100C0000C501DF91CF911F910F91FF90EF90DF9081
:100C1000CF90BF90AF900895FC01538D448D252F48
:100C200030E0842F90E0821B930B541710F0CF9686
:100C3000089501970895FC01918D828D981761F0B8
:100C4000A28DAE0FBF2FB11D5D968C91928D9F5FCF
:100C50009F73928F90E008958FEF9FEF0895FC01AE
:100C6000918D828D981731F0828DE80FF11D858D61
:100C700090E008958FEF9FEF0895FC01918D228DF4
:100C8000892F90E0805C9F4F821B91098F73992779
:100C9000089582E693E00E943D0621E0892B09F445
:100CA00020E0822F089580E090E0892B29F00E94B7
:100CB000490681110C9400000895FC01A48DA80F31
:100CC000B92FB11DA35ABF4F2C91848D90E001968E
:100CD0008F739927848FA689B7892C93A089B189AE
:100CE0008C91837080648C93938D848D981306C04F
:100CF0000288F389E02D80818F7D80830895EF92B3
:100D0000FF920F931F93CF93DF93EC0181E0888FC5
:100D10009B8D8C8D98131AC0E889F989808185FF95
:100D200015C09FB7F894EE89FF896083E889F98937
:100D300080818370806480839FBF81E090E0DF9139
:100D4000CF911F910F91FF90EF900895F62E0B8D8C
:100D500010E00F5F1F4F0F731127E02E8C8D8E1147
:100D60000CC00FB607FCFACFE889F989808185FFAE
:100D7000F5CFCE010E945D06F1CFEB8DEC0FFD2F7C
:100D8000F11DE35AFF4FF0829FB7F8940B8FEA8969
:100D9000FB8980818062CFCF0F931F93CF93DF9326
:100DA0008C01D0E0C0E0F801EC0FFD1F64916623D8
:100DB00041F082E693E00E947F06892B11F0219694
:100DC000F2CFCE01DF91CF911F910F910895CF9374
:100DD000DF93EC01888D8823B9F0AA89BB89E88963
:100DE000F9898C9185FD03C0808186FD0DC00FB609
:100DF00007FCF7CF8C9185FFF2CF808185FFEDCF87
:100E0000CE010E945D06E9CFDF91CF910895833036
:100E100081F028F4813099F08230A9F0089587306C
:100E2000A9F08830C9F08430B1F4809180008F7DC2
:100E300003C0809180008F7780938000089584B5EF
:100E40008F7784BD089584B58F7DFBCF8091B000EE
:100E50008F778093B00008958091B0008F7DF9CF97
:100E60001F93CF93DF93282F30E0F901EE58FF4F07
:100E70008491F901EF58FD4FD491F901E35AFD4FE8
:100E8000C491CC23A9F0162F81110E940707EC2FE3
:100E9000F0E0EE0FFF1FED5AFD4FA591B4918FB713
:100EA000F894EC91111108C0D095DE23DC938FBF2C
:100EB000DF91CF911F910895DE2BF8CFCF93DF9371
:100EC00090E0FC01EF58FD4F2491835A9D4FFC01A7
:100ED00084918823C9F090E0880F991FFC01E8599C
:100EE000FF4FA591B491FC01ED5AFD4FC591D491EE
:100EF00061110DC09FB7F8948C91209582238C933B
:100F00008881282328839FBFDF91CF910895623085
:100F100051F49FB7F8943C91822F809583238C9352
:100F2000E8812E2BEFCF8FB7F894EC912E2B2C93DA
:100F30008FBFEACF3FB7F89480912E0390912F0393
:100F4000A0913003B091310326B5A89B05C02F3F77
:100F500019F00196A11DB11D3FBFBA2FA92F982FDF
:100F60008827BC01CD01620F711D811D911D42E0DA
:100F7000660F771F881F991F4A95D1F708958F92A2
:100F80009F92AF92BF92CF92DF92EF92FF926B014E
:100F90007C010E949A074B015C01C114D104E10459
:100FA000F104B9F00E949A07681979098A099B0926
:100FB000683E73408105910580F321E0C21AD10893
:100FC000E108F10888EE880E83E0981EA11CB11C90
:100FD000E4CFFF90EF90DF90CF90BF90AF909F90C5
:100FE0008F9008952FB7F89460912A0370912B0386
:100FF00080912C0390912D032FBF089520910D0413
:1010000030910E042817390771F490910B048091E8
:101010000C04981741F0E0910B04F0E0E751FD4F0C
:10102000808190E008958FEF9FEF08950895EF92EB
:10103000FF920F931F93CF93DF93DC015C96ED90AB
:10104000FC905D97E114F10479F481E090E013964F
:101050009C938E93129790E080E0DF91CF911F9147
:101060000F91FF90EF9008955196ED91FC9152975A
:1010700050968C915097982F90950FB75E962C9123
:101080005E97122F127021FD6095F8942081112334
:1010900019F1282B2083E7012197F1F728E0462F4B
:1010A00050E0308160FF1AC0382B3083E701219770
:1010B000F1F7BA0175956795215089F7112381F0F1
:1010C0008081892380830FBF5C968D919C910197CD
:1010D000F1F781E090E0C1CF2923DCCF3923E5CFC0
:1010E0009081892BEFCF20910D0430910E042817A9
:1010F000390771F480910C0420910B0490E0805C1E
:101100009F4F821B910960E470E00E944C22089579
:1011100090E080E0089520910D0430910E0428178E
:101120003907B9F490910B0480910C04981789F059
:10113000E0910B04F0E0E751FD4F808120910B041A
:1011400030E02F5F3F4F2F73332720930B0490E045
:1011500008958FEF9FEF089520919D02260F33276A
:10116000331F21323105ECF42091C302FC0190E0E1
:1011700080E0243069F082E00895A0919D022191E1
:10118000AC0145585D4FA40FB52FB11D2C930196AE
:10119000861798F380919D02680F60939D0280E00E
:1011A000089581E008951092C30281E08093C50202
:1011B0001092C40261E082E10E94300761E083E1A5
:1011C0000E943007E9EBF0E080818E7F8083808190
:1011D0008D7F808388E48093B80085E48093BC0091
:1011E0000895CF93DF9391E090937A028823B9F02A
:1011F000C091B800D091BA008091BC008A7B8093E6
:10120000BC0060E082E10E94300760E083E10E9460
:1012100030070E94D308D093BA00C093B800DF9182
:10122000CF91089508950895E0917202809171021E
:10123000E81730F4F0E0EF5AFD4F808190E0089518
:101240008FEF9FEF089590917202809171022FEFBE
:101250003FEF981748F4E92FF0E0EF5AFD4F208157
:1012600030E09F5F90937202C901089580917102EE
:1012700090917202891B990B0895CF92DF92EF92A1
:10128000FF920F931F93CF93DF937C01CB018A01D1
:1012900020915002222389F0EB016B01C40ED51E70
:1012A000CC15DD0569F06991D701ED91FC910190B4
:1012B000F081E02DC7010995F3CF642F0E94AC089F
:1012C000C801DF91CF911F910F91FF90EF90DF90B8
:1012D000CF900895CF93DF931F92CDB7DEB7698388
:1012E000209150022223F9F020917302203258F00D
:1012F00021E030E0FC013383228390E080E00F9016
:10130000DF91CF91089580917402E82FF0E0E05DC5
:10131000FD4F998190838F5F809374028093730255
:1013200081E090E0ECCF61E0CE0101960E94AC0834
:10133000F7CFDC011A96ED91FC9130E020E00994A2
:10134000DC011696ED91FC9130E020E040E069E18F
:101350000994DC011696ED91FC9130E020E040E02C
:1013600068E109949A01DC011696ED91FC91462FF3
:1013700067E10994EF92FF920F931F93CF93DF934E
:101380001F92CDB7DEB77C018B01D8016C9167311C
:1013900029F150F46531A0F40F90DF91CF911F91A6
:1013A0000F91FF90EF9008956A3118F16E3FA1F709
:1013B000F8014181498369E2C7010E9499090BC084
:1013C000F80141814983D7011696ED91FC9130E0F7
:1013D00020E0C70109950E5F1F4FD7CFF80181812B
:1013E0008983AE014F5F5F4F61E0C7010E94B20980
:1013F000F2CF0F5F1F4FD7011696ED91FC9130E0B1
:1014000020E040E0C7010995C0CF462FDC011696C9
:10141000ED91FC9130E020E066E10994462FDC017B
:101420001696ED91FC9130E020E065E10994EF9291
:10143000FF920F931F93CF93DF93EC01042F790159
:101440006D3009F446C050F46B30C9F1693009F4CD
:101450009FC06A3009F465C080E046C06E3009F470
:1014600052C06F3099F70E94A909F7011381110F3B
:10147000110F110F6C89160F60E4CE010E940E0A45
:10148000612F62956F706061CE010E940E0A612F1C
:101490006F70CE010E94050AF7016481606BCE0176
:1014A0000E94050AF701408151816281660F660F33
:1014B000660FCE010E94B2090150A1F72EC062E270
:1014C00071E0442311F06DE171E0CE010E94BA0990
:1014D0000AC0411110C066E171E00E94BA09E881BA
:1014E000F98182898C8B81E0DF91CF911F910F91DF
:1014F000FF90EF9008956FE071E00E94BA09E881D3
:10150000F9818389EFCF0E94A90961E8CE010E9489
:101510000E0A602FCE010E94050ACE010E94A0098A
:10152000E2CFEA85FB8530E020E040E068E2CE01D2
:101530000995EE81FF8130E020E040E064E1CE01DA
:10154000099541E06BE4CE010E949909E881F98197
:10155000448169E2CE010E94990940E06BE4CE012A
:101560000E949909E881F981448169E2CE010E94D3
:10157000990941E06BE4CE010E949909E881F98163
:10158000458169E2CE010E94990967E271E09DCF31
:101590008CE591E0998388831C8AA5CFDC0118969D
:1015A000ED91FC9130E020E040E069E10994DC013C
:1015B0001896ED91FC9130E020E040E068E109945C
:1015C000CF93DF931F92CDB7DEB76983BE016F5F04
:1015D0007F4F0E94D1050F90DF91CF910895EF9238
:1015E000FF921F93CF93DF93EC01162F7A010E9495
:1015F000D70A60E4CE010E94E00AE885F9859701E8
:10160000412F67E1CE010995CE01DF91CF911F9166
:10161000FF90EF900C94CE0AEF92FF921F93CF931E
:10162000DF93EC01142F7901663181F138F46431D4
:1016300009F44BC0653179F080E022C06831C9F10E
:1016400050F16931C9F780912F02882391F1CE01C1
:101650000E94CE0A2EC080912F02882319F0CE015D
:101660000E94CE0ACE010E94D70A60E0CE010E94FD
:10167000E00A612FCE010E94E00A81E080932F02F0
:10168000DF91CF911F91FF90EF900895642F0E94FA
:10169000E00A81E0F5CF80912F02882319F0CE0176
:1016A0000E94CE0AA701193138F4612FCE010E94A1
:1016B000EF0A10922F02EDCF68E1CE010E94EF0AEF
:1016C000185188E1E80EF11CEDCF8E898F3F11F49F
:1016D00088E78E8BE885F9859701412F64E1CE017B
:1016E000DF91CF911F91FF90EF900994FC01662349
:1016F000D9F16A30C9F1808D811125C06C3F48F065
:1017000085E0808F617070E0738B628B2EEF3FEF0E
:1017100029C0683F20F084E0808F6370F4CF603F81
:1017200020F083E0808F6770EECF603E20F082E093
:10173000808F6F70E8CF262F30E0603C98F081E01A
:10174000808F6F71E0CF8150808F2289338996E03E
:10175000220F331F9A95E1F76F73262B338B228B61
:101760008111D4CFC90108952FEF3FEFFBCF0F9325
:10177000DC01DE963C91DE97431BD496ED91FC9103
:1017800009950F910895CF93DF93FC01A081B1815A
:1017900082AD982F990F990F990F95AF50969C9104
:1017A0005097903208F09FE1990F990F990F94AFDD
:1017B00023AD922F990F990F990F96AF51963C91A7
:1017C0005197682F620F7727771F3617170614F483
:1017D000832F821B97AFEF01C05CDF4F880F880F0C
:1017E000880F890F8883219680EF888354968D9186
:1017F0009C915597813F910508F48883EE5BFF4FDC
:1018000056968C918083DF91CF9108950F93FC01C0
:10181000EB5BFF4F308131965081451730F4301724
:1018200038F0041728F080E013C03017D0F3FBCF56
:10183000FC01ED5BFF4F30818C5B9F4FFC01808191
:10184000681740F481E0321718F081E0261758F746
:101850000F9108953217C8F3E6CF2F923F924F921F
:101860005F926F927F928F929F92AF92BF92CF9230
:10187000DF92EF92FF920F931F93CF93DF93EC01D0
:101880004C0183E4880E911CF40110823297208071
:101890005E01F4E4AF0EB11CF50120823FAC6E0195
:1018A000F5E4CF0ED11CF6013082359740807E01E1
:1018B000F6E4EF0EF11CF701408234961081329766
:1018C00060803196708032975080012F262D472DF1
:1018D000652DCE010E94060CCD58DF4F811114C03A
:1018E0001882DF91CF911F910F91FF90EF90DF90C1
:1018F000CF90BF90AF909F908F907F906F905F90B0
:101900004F903F902F90089581E08883552011F0EB
:10191000F4015082621410F4F5016082371410F45F
:10192000F60170821415E8F6F7011083DACF0F93F1
:10193000DC01802FFD01ED58FF4F90819923E9F1E3
:101940002223D9F1223020F0023079F56F5F621B3B
:10195000082F0170FD0180FD32C0EB5BFF4F8081DD
:10196000481758F131968081481738F532979081A1
:1019700031978081260F2617F0F46917D8F42FEFDE
:10198000290F8217D0F4681708F4682F291708F474
:10199000922F961BD696ED91FC91D7970480F581F6
:1019A000E02D292FCD01099508C0033089F64F5F3E
:1019B000421BCECF682F691720F30F910895ED5B7E
:1019C000FF4F80816817C8F3319680816817A8F7A8
:1019D0003296908131978081240F241778F449172B
:1019E00060F42FEF290F821740F7481708F4482FAB
:1019F000291708F4922F941BCDCF482F4917E8F6EA
:101A0000F2CF0F93242F01E0462F682F8FE994E047
:101A10000E94970C0F910895AF92BF92CF92DF92E0
:101A2000EF92FF920F931F93CF93DF93E82EF62E42
:101A3000C42FD22F01E0060FA22EA61AC42EC80E64
:101A4000402F6A2D8C2D0E94010D11E01E0DBD2E20
:101A5000BE18DF2CDC0E412F6B2D8D2D0E94010D49
:101A60008C2F8E19E82E402F6A2D0E94010DCF1960
:101A7000412F6B2D8C2F0E94010D402F6D2F8C2D2F
:101A80000E94010D412F6D2F8D2D0E94010D402FC1
:101A90006D2F8E2D0E94010D412F6D2F8C2FDF9108
:101AA000CF911F910F91FF90EF90DF90CF90BF905B
:101AB000AF900C94010D0F939091E4046917A0F07E
:101AC0009091E504691780F49091E204891760F021
:101AD0009091E304891740F4462F682F00E021E03D
:101AE0008FE994E00E94970C0F910895FF920F9355
:101AF0001F93CF93DF93F82ED62F142FC22F00FF02
:101B00000CC0622F6D1B842F8F0D0E945B0D6C2FFC
:101B10006F198D2F810F0E945B0D01FF0CC06C2F80
:101B20006D1B812F8F190E945B0D6C2F6F19812FF8
:101B30008D1B0E945B0D03FF0CC06C2F6D0F812F5E
:101B40008F0D0E945B0D6C2F6F0D8D2F810F0E94EA
:101B50005B0D02FF11C06C2F6D0F812F8F190E943A
:101B60005B0D6C2F6F0D812F8D1BDF91CF911F911E
:101B70000F91FF900C945B0DDF91CF911F910F910E
:101B8000FF900895CF92DF92EF92FF920F931F93F1
:101B9000CF93DF93F82EE62EC42E04E0060F24E048
:101BA000280F4DEF460F6DEF680F8FE994E00E940C
:101BB000060C8823D1F00C2D2E2D4F2D63E080E0F4
:101BC0000E94760DC0E013E08AEFD82EDEEFCF5FE3
:101BD0008C2F880F8F5FD80F0C2D2E2D4F2D612F3E
:101BE0008C2F0E94760DC11748F0DF91CF911F9185
:101BF0000F91FF90EF90DF90CF900895D7FDE7CF42
:101C00001150D394D394DD0DE2CF213039F020F080
:101C1000223031F0840F0895860F0895841B0895B3
:101C2000861B0895213039F020F0223031F0861BD8
:101C30000895840F0895860F0895841B08955F9278
:101C40006F927F928F929F92AF92BF92CF92DF92CC
:101C5000EF92FF920F931F93CF93DF935C01162FA8
:101C6000642EEC01C15BDF4FDC80ED804C0189E725
:101C7000880E911CFE80FD18C12EF11608F4CF2CA1
:101C80005B800C85202F4E2D6D2D8A810E94050EC4
:101C9000782E202F4E2D6D2D852D0E94120E482F4F
:101CA000662071F08A85F40180832C2D672DC50193
:101CB0000E94970C1F1548F01F19E394D12CDACF1E
:101CC00089858111F7CF8B85EECF1D0D1C83ED82A9
:101CD000DF91CF911F910F91FF90EF90DF90CF9008
:101CE000BF90AF909F908F907F906F905F9008957E
:101CF000DC0118964C911897ED91FC911197249165
:101D000030E0042E02C0359527950A94E2F7842F1F
:101D1000860F883068F031961196FC93EE93E4912B
:101D200098E0941B01C0EE0F9A95EAF72E2B88508D
:101D300018968C938FEF9FEF01C0880F6A95EAF792
:101D4000809582230895FC01E60FF11D849190E0B7
:101D5000982F88273196E4918E0F911D0895CF9387
:101D6000DF93EC016BAFEEA9FFA90190F081E02DAC
:101D70000995EEA9FFA90280F381E02DCE01DF9144
:101D8000CF910994AF92BF92CF92DF92EF92FF92E0
:101D90000F931F93CF93DF9300D000D01F92CDB746
:101DA000DEB78C01DC01DA96AC90DA97DB96EC902A
:101DB000DB97ED91FC91B188FE2CD12CC12CD80180
:101DC000ED91FC9111978089D8962D913C911C82C0
:101DD000FD828B83B8E08B9FC00111248C9DA001F4
:101DE0008D9D500D9C9D500D1124240F351F3A835D
:101DF0002983D8011496ED91FC919E012F5F3F4FEE
:101E000041E06FE0C8010995F3948F2D8E198A1572
:101E100028F4BFEFCB1ADB0AFB1488F20F900F9067
:101E20000F900F900F90DF91CF911F910F91FF9026
:101E3000EF90DF90CF90BF90AF900895CF92DF9258
:101E4000EF92FF920F931F93CF93DF93EC01962FA6
:101E5000683109F44BC0B901993130F49431C9F0BB
:101E6000973189F080E006C0993109F461C0903261
:101E7000C9F781E0DF91CF911F910F91FF90EF9013
:101E8000DF90CF90089550E08FEF93E00E943D09DE
:101E9000F0CF8C859D85AE85BF85892B8A2B8B2BBA
:101EA00071F4E881F981A585B0E020EA36E841E0E7
:101EB00050E00E9453216C877D878E879F87109208
:101EC00072021092710210927402109273020E94B8
:101ED000D30882E199E090939C0280939B0283E176
:101EE00099E09093A00280939F02C3CF2C853D85FB
:101EF0004E855F8560E074E284EF90E00E9460228E
:101F00002051310941095109569547953795279533
:101F10002093B8008E8990E09595879591E09093F5
:101F2000500280932E021092740210927302A1CF7D
:101F3000D0917302D13208F093C0C0912E020E945A
:101F40009A076B017C018091C302811164C082E019
:101F50008093C30281E08093C5028FEF8093C20219
:101F60001092E702D093E602A0E3B2E0E6ECF2E0E2
:101F700080E0D8137CC01092E8028091E802CC0F78
:101F8000C82BC093E8028091C402813009F073C06D
:101F90001092C4020E949A076B017C018091E802B2
:101FA0008093BB008091760290917702A091780295
:101FB000B0917902892B8A2B8B2B99F00E949A077A
:101FC0000091760210917702209178023091790287
:101FD0006C197D098E099F0906171707280739070D
:101FE000D8F18091BC0083FDD9CF85EC8093BC00F3
:101FF0000E949A076B017C018091C3028230E9F153
:102000008091C2028F3F61F18091C202803241F122
:102010008091C20225C08091760290917702A091B2
:102020007802B0917902892B8A2B8B2B09F48BCF04
:102030000E949A070091760210917702209178020F
:10204000309179026C197D098E099F0906171707CF
:102050002807390708F077CF809175020E94F108B0
:1020600010927402109273021092500202CF9D914E
:1020700091938F5F7ECF85EEB9CF8091760290915C
:102080007702A0917802B0917902892B8A2B8B2B51
:1020900009F4B2CF0E949A0700917602109177025C
:1020A00020917802309179026C197D098E099F097F
:1020B000061717072807390708F09ECFCDCF0F93D3
:1020C0001F93CF93DF93EC01862F642F8C3208F09F
:1020D0003AC08A3208F060C0883209F44BC08932B5
:1020E00009F460C0803408F475C0982F9F73FE0116
:1020F000E90FF11D868D8F3F09F44EC0903108F431
:1021000036C0282F30E0F901EE58FF4F8491F901D5
:10211000EF58FD4F0491F901E35AFD4F149111233B
:1021200079F081110E940707E12FF0E0EE0FFF1F09
:10213000E75BFD4FA591B491EC910E2381E009F48A
:1021400080E0898F29C08D3299F108F4CBCF94EBD0
:10215000980F923008F0C6CF8F73C80FD11D8E8DA7
:10216000411134C061E00E945E0760E08E8D0E94E4
:10217000300712C08E01025E1F4FD0E0F80181913E
:102180008F018F3F31F061E0D03108F062E00E94B2
:102190005E07DF5FD63191F781E0DF91CF911F912C
:1021A0000F91089570E090E080E00E94BF07F4CFA7
:1021B00085E090E0433010F082E090E0880F991FB6
:1021C000880F991F05970197F1F7E6CF62E00E940B
:1021D0005E07E2CF80E0E1CFCF92DF92EF92FF92F5
:1021E0000F931F93CF93DF936C01EB017B01E40E00
:1021F000F51E10E000E0CE15DF0561F06991D60113
:10220000ED91FC910190F081E02DC6010995080F38
:10221000191FF1CFC801DF91CF911F910F91FF904E
:10222000EF90DF90CF900895FC014481558160814B
:1022300071818BE994E00C94EC102F923F924F92B5
:102240005F926F927F928F929F92AF92BF92CF9246
:10225000DF92EF92FF920F931F93CF93DF9300D003
:1022600000D000D0CDB7DEB77C016C0124E0C20EF7
:10227000D11CFC01E158FF4F0190F081E02DC60117
:1022800009958C018E3F9F4F08F05BC0370182E8B3
:10229000680E711CF301F081FB83470121E8820E77
:1022A000911CF401F081FD839701215A3F4F3A833D
:1022B0002983F9018081813009F46AC008F45CC087
:1022C000823009F471C0833009F47AC0F701EB5A07
:1022D000FF4F2D81208331963B813083379780815A
:1022E000918147969C838B830F3F110511F008F075
:1022F00015C1B4960136110530F40134110558F0BA
:10230000F701EF58FF4F808191812B813C81280F8D
:10231000391F3C832B838B819C810196FC01249186
:1023200021115AC0412CE981FA818081813009F460
:1023300092C108F48BC1823009F48FC1833009F453
:1023400091C181E090E026960FB6F894DEBF0FBEF3
:10235000CDBFDF91CF911F910F91FF90EF90DF9054
:10236000CF90BF90AF909F908F907F906F905F9035
:102370004F903F902F900895F701EF5AFF4F019033
:10238000F081E02DC6010995FB81F80FFB839ECFFC
:10239000F701EF5AFF4F0190F081E02DC60109953A
:1023A0002D81281B2D8392CFF701EF5AFF4F01900B
:1023B000F081E02DC60109953B81381B3B8386CF18
:1023C000F701EF5AFF4F0190F081E02DC60109950A
:1023D0009D81980F9D837ACFEB81FC8124912017FA
:1023E000110609F094C0CF010296009709F49ACF24
:1023F000F701ED5AFF4FFE83ED83918380831086B2
:10240000719660818D819E810E94780EED81FE81A2
:102410008683F701EB59FF4F60818D819E810E9479
:10242000780E582EED81FE818783970123583F4F08
:102430003C832B83F9019081ED81FE81928781E0BD
:10244000911180E0ED81FE818387F701EA59FF4F0A
:10245000B0806B2D8D819E810E94780E382EF70101
:10246000E959FF4F2080622D8D819E810E94780E58
:10247000182FF701E859FF4F0081602F8D819E8151
:102480000E94780E015021E030E0A90101C0440F04
:102490000A95EAF7482E441AED81FE81068110164E
:1024A0000CF041CFBA94C90101C0880FBA94EAF781
:1024B000381AB484150D2A9401C0220F2A94EAF721
:1024C000A22EA11A2B2D4A2D632D82810E94050E6A
:1024D000182FED81FE8182832B2D4A2D632D838160
:1024E0000E94120EED81FE818383F1E0BF1609F494
:1024F00093C0BF1608F450C022E0B21609F492C08F
:1025000033E0B31609F499C0082F212F49C0FC010C
:1025100084912B813C81280F311DFBCEF701EB58B4
:10252000FF4F80819181EB81FC81E80FF91FFC83D3
:10253000EB835F0160E0C5010E94A30E2B813C810B
:10254000280F391F3C832B8362E0C5010E94A30E34
:1025500034E0A30EB11C8017910760F3EB81FC817E
:10256000849190E0982F88273196E4918E2B0097E4
:1025700009F4D8CE0817190721F48B819C810396A2
:1025800034CFEB81FC813296E4912B813C812E0F7C
:10259000311D3C832B83E2CF202F210F082F050D07
:1025A000482F612FC6010E94060C882309F4BBCE78
:1025B000ED81FE81148215825701F2E6AF0EB11C47
:1025C00023E6E20EF11CF50160818D819E810E945F
:1025D000780E082FF70160818D819E810E94780E10
:1025E000182F40E0602FC6010E941F0E41E0612FAE
:1025F000C6010E941F0E61E08D819E810E94780EAF
:102600008111EFCFED81FE8185818515E4F2828510
:10261000EB81FC81808387CEB51821E0210F080F64
:102620001B0DBECF91E0392F301B21E0210F9519F2
:1026300001E0080F890F130FB3CF212F250D982F1D
:10264000901B01E0080F81E0890FAACFF40180817F
:10265000480E408276CEF301FACFF40180818419CE
:1026600080836FCEF301FACF089590E080E0089563
:10267000FB0101900020E9F73197AF01461B570B92
:102680000C94DF058F929F92AF92BF92EF92FF92D0
:102690000F931F93CF93DF93CDB7DEB7A1970FB6FC
:1026A000F894DEBF0FBECDBF7C01FA01CB0119A2A9
:1026B000223008F42AE08E010F5D1F4F822E912CEC
:1026C000B12CA12CBF01A50194010E946022F90147
:1026D000CA016A300CF5605DD8016E938D01232B21
:1026E000242B252B79F790E080E0109721F0BD0195
:1026F000C7010E943813A1960FB6F894DEBF0FBE33
:10270000CDBFDF91CF911F910F91FF90EF90BF90C0
:10271000AF909F908F900895695CDECF6CEB71E075
:102720000C943813CF93DF930E94CC06EC0182E621
:1027300093E00E948E138C0F9D1FDF91CF9108951F
:10274000809190048E3059F40E94F20721E06032AB
:102750007F4B8240910508F020E0822F089583315D
:1027600099F383E292E00E949213F6CFCF93DF9326
:10277000262F482F50E070E060E082E693E00E9450
:102780004213EC0182E693E00E948E138C0F9D1F92
:10279000DF91CF910895FC0180819181009711F024
:1027A0000C9438230895CF92DF92EF92FF920F930B
:1027B0001F93CF93DF938C016B01770FEE08FF0817
:1027C000F7FE1FC06DE20E947F06EC0144275527EB
:1027D000BA014C195D096E097F092AE0C8010E94FF
:1027E0004213C80FD91FC8010E948E138C0F9D1F62
:1027F000DF91CF911F910F91FF90EF90DF90CF90DD
:1028000008952AE0B701A6010E944213EC01EBCF24
:10281000FC01A081B18150962C9182AD38E0839F5C
:10282000C0011124289FA001299F500D112470E0A0
:1028300060E080AD91AD0C9487241F93CF93DF931C
:10284000EC010E94C20E1BAD8AAD180FE881F98120
:102850008189181768F0EC81FD8130E020E040E0CC
:1028600060E1CE01099580E0DF91CF911F9108953D
:10287000FE01E658FF4F8081882319F0CE010E94A7
:102880000814612FCE010E94AF0E81E0EDCFCF93EF
:10289000DF93EC01FC01E658FF4F8081882319F09B
:1028A000CE010E94081460E0CE01DF91CF910C941C
:1028B000AF0E0F931F93CF93DF93EC018881998123
:1028C000009759F02A813B812617370730F081E0C5
:1028D000DF91CF911F910F9108958B016F5F7F4F13
:1028E0000E94C123009759F0998388831B830A8330
:1028F0002C813D81232B59F7FC011082E8CF80E029
:10290000E7CFCF92DF92EF92FF920F931F93CF9377
:10291000DF93CDB7DEB762970FB6F894DEBF0FBE78
:10292000CDBF8C01CB01F80111821082138212827B
:10293000158214824AE09E012F5F3F4F6901B90161
:102940000E942320F60101900020E9F731977F01D2
:10295000EC18FD08B701C8010E945914F801208144
:10296000318181111CC02115310519F0C9010E9466
:102970003823F80111821082158214821382128288
:1029800062960FB6F894DEBF0FBECDBFDF91CF9138
:102990001F910F91FF90EF90DF90CF900895F582F7
:1029A000E482B601C9010E948E24EACFEF92FF9221
:1029B0000F931F93CF93DF93EC01198218821B8230
:1029C0001A821D821C8261157105E1F08B01FB01E9
:1029D00001900020E9F731977F01E61AF70AB70165
:1029E0000E94591428813981811113C021153105A4
:1029F00019F0C9010E943823198218821D821C8295
:102A00001B821A82DF91CF911F910F91FF90EF905F
:102A10000895FD82EC82B801C901DF91CF911F9129
:102A20000F91FF90EF900C948E2485ED8093BC0065
:102A30008091760290917702A0917802B09179020C
:102A40000796A11DB11D23E0B695A795979587958B
:102A50002A95D1F72091BC0024FD03C01092C30237
:102A600008954091760250917702609178027091BA
:102A70007902452B462B472B69F30097A105B10539
:102A800041F025E32A95F1F700000197A109B1096A
:102A9000E1CF809175020C94F1081F920F920FB64E
:102AA0000F9211242F933F934F935F936F937F93D4
:102AB0008F939F93AF93BF93EF93FF9382E693E03F
:102AC0000E945D06FF91EF91BF91AF919F918F9111
:102AD0007F916F915F914F913F912F910F900FBE1A
:102AE0000F901F9018951F920F920FB60F921124FE
:102AF0002F938F939F93EF93FF93E0917203F09145
:102B000073038081E0917803F091790382FD1BC00B
:102B1000908180917B038F5F8F7320917C0382175C
:102B200041F0E0917B03F0E0EE59FC4F958F8093EC
:102B30007B03FF91EF919F918F912F910F900FBE8B
:102B40000F901F9018958081F4CF1F920F920FB6AF
:102B50000F9211242F933F938F939F93AF93BF9323
:102B600080912A0390912B03A0912C03B0912D0307
:102B70003091290323E0230F2D3758F50196A11D2D
:102B8000B11D2093290380932A0390932B03A093D4
:102B90002C03B0932D0380912E0390912F03A091CD
:102BA0003003B09131030196A11DB11D80932E0316
:102BB00090932F03A0933003B0933103BF91AF9153
:102BC0009F918F913F912F910F900FBE0F901F906B
:102BD000189526E8230F0296A11DB11DD2CF1F9292
:102BE0000F920FB60F9211242F933F934F935F9341
:102BF0006F937F938F939F93AF93BF93EF93FF93C5
:102C0000E0910D04F0910E04309749F0A685B78548
:102C10008585968D91FF14C09C918923A1F4FF9125
:102C2000EF91BF91AF919F918F917F916F915F9144
:102C30004F913F912F910F900FBE0F901F901895BD
:102C40009C91892361F7A389B4899C91858980959A
:102C500089238C93868997890197F1F7608D718D0F
:102C6000A685B785558538E020E0CB010197F1F7BF
:102C7000822F90E095958795282F4C91452309F058
:102C80002068315091F7868D81FD209580910C044C
:102C900090E001968F73992730910B04381799F0C3
:102CA000A0910C04B0E0A751BD4F2C9380930C046D
:102CB000828D938D0197F1F7A389B4898C919589C1
:102CC000892B8C93ACCF868D8160868FF1CF1F923C
:102CD0000F920FB60F9211242F933F934F935F9350
:102CE0006F937F938F939F93AF93BF93EF93FF93D4
:102CF0008091B900887F803609F44AC0F0F58832A7
:102D000009F4A7C018F5803109F49BC0B8F48823F2
:102D100009F4F9C0883009F494C0FF91EF91BF9194
:102D2000AF919F918F917F916F915F914F913F9163
:102D30002F910F900FBE0F901F901895883109F4B6
:102D400088C0803251F78093C20214C0803409F4E5
:102D50009DC040F48033B9F38833F9F68093C20202
:102D600085ECB0C0803509F485C0883509F496C07B
:102D7000883499F60E941515D0CF883909F48CC093
:102D800038F5883729F050F4883611F0803729F665
:102D900083E08093C3021092C10257C0883809F4BF
:102DA0007BC0803919F0803809F0B7CF8091C1021B
:102DB000803208F071C0E091C10281E08E0F8093F3
:102DC000C1028091BB00F0E0EF55FD4F80833DC014
:102DD000803B39F0E0F4803A09F479C0883A09F090
:102DE0009CCF84E08093C30210929E0210929D02B9
:102DF000E0919B02F0919C02099580919D028111C6
:102E00000FC081E080939D0210927B0209C0803C3C
:102E100009F4A6CF883C09F4A3CF883B09F07DCF05
:102E2000E0919E0281E08E0F80939E02F0E0E558D3
:102E3000FD4F80818093BB0090919E0280919D0206
:102E400029C08091E8028093BB0085EC8093BC0090
:102E500064CF9091E7028091E602981758F5E091CF
:102E6000E70281E08E0F8093E702F0E0EA53FD4F26
:102E70008081E9CFE091E70281E08E0F8093E70245
:102E80008091BB00F0E0EA53FD4F80839091E70210
:102E90008091E6029817C8F285E8D8CFE091E70262
:102EA00081E08E0F8093E7028091BB00F0E0EA534F
:102EB000FD4F80838091C50281115CCF81E08093BA
:102EC000C40284EA8093BC001092C30226CF85EC32
:102ED0008093BC001092C3028091C102803230F412
:102EE000E091C102F0E0EF55FD4F10826091C10208
:102EF00070E0E0919F02F091A00281EA92E00995D2
:102F00001092C1020ACF1092C20234CFCF92DF9248
:102F1000EF92FF920F931F93E82FF92F05C00150F6
:102F200011092109310961F1908196239417B9F3B0
:102F300005C0015011092109310911F19081962331
:102F40009413F7CFC12CD12CE12CF12C0AC08FEFB8
:102F5000C81AD80AE80AF80A0C151D052E053F05FF
:102F600079F080818623841791F36C2D7D2D8E2D31
:102F70009F2D1F910F91FF90EF90DF90CF900895BC
:102F800060E070E080E090E01F910F91FF90EF9083
:102F9000DF90CF9008951F93CF93DF931092650336
:102FA0001092640388EE93E0A0E0B0E080936603A3
:102FB00090936703A0936803B093690328E731E017
:102FC000309363032093620325EC30E030936F036A
:102FD00020936E0324EC30E0309371032093700350
:102FE00020EC30E0309373032093720321EC30E047
:102FF000309375032093740322EC30E03093770311
:103000002093760326EC30E0309379032093780305
:1030100010927B0310927C0310927D0310927E032A
:10302000109202041092010480930304909304040C
:10303000A0930504B09306048AE891E090930004FD
:103040008093FF0310929E0410929D048EE595E0FC
:1030500090931B0580931A0510921C0510921D0574
:103060001092B7048EEA91E090939C0480939B04A5
:103070001092A00410929F041092B4041092AB041A
:103080001092AC041092AD041092AE048FEF8093B6
:10309000B5048093B904EDEBF4E0CFEFC19384E085
:1030A000E33DF807D9F787E19AE09093A404809371
:1030B000A3048CE09BE09093A6048093A5048EE18A
:1030C0009FE09093A8048093A7048FE590E19093EC
:1030D000AA048093A90430E020E040E069E08FE991
:1030E00094E00E94170A1092EB041092EA0488E61A
:1030F00095E09093D4048093D3048FE094E0909370
:10310000D8048093D70411E01093D9041092DA0404
:103110001092F704109217051093180510931905D3
:1031200086EB91E09093D6048093D5048FE994E0E8
:103130000E94C30B1092E6041092E804C093E704C7
:10314000C093E904E091D504F091D6040280F381A4
:10315000E02D8FE994E009958BEC95E09093ED04D8
:103160008093EC041092FA04C093C804C093C9047D
:10317000C093CA041092920410929504109296047F
:1031800010929704109298041093990410939A0443
:103190008FE190E00E949C22EC011B821A8288EE53
:1031A00093E0A0E0B0E08C839D83AE83BF838CE985
:1031B00091E0998388831F8A1E8A198E188E1B8E30
:1031C0001A8E1D8E1C8E8E8D8E7F8D7F8E8F81FB35
:1031D000662760F9612787E00E94300761E087E099
:1031E0000E945E07E8E7F2E0E491E88BE4E6F2E0B3
:1031F000E491F0E0EE0FFF1FED5AFD4F85919491A1
:103200009A8B898B60E085E00E945E078E8D81FD40
:1032100004C061E085E00E94300785E08C87E6E726
:10322000F2E0E491ED87E2E6F2E0E491F0E0EE0F07
:10323000FF1FE75BFD4F859194919F878E8783E009
:1032400080938F0483E1809390048DE991E09D8FBA
:103250008C8F8DEB90E09F8B8E8B8BE991E0998F1B
:10326000888F8CE291E09B8F8A8F809168008460C8
:10327000809368009C852DE630E0983050F02BE676
:1032800030E09E3030F02CE630E0963110F030E047
:1032900020E03C8B2B8B292F30E09830B8F581E073
:1032A00001C0880F9A95EAF78D8B8C8D9D8D0197C3
:1032B000F1F78A8D9B8D892B09F1E0910D04F09136
:1032C0000E04CE17DF07D1F0309739F0A389B48907
:1032D0009C918589809589238C938E8D8E7F8E8F8E
:1032E00010920C0410920B04D0930E04C0930D04A2
:1032F000EB89FC8980819D89892B8083D0939404FC
:10330000C0939304DF91CF911F9108959E3040F4B4
:103310002850310981E001C0880F2A95EAF7C4CF0F
:103320002E503109F7CFCF93DF93CDB7DEB7EC97AF
:103330000FB6F894DEBF0FBECDBF789484B582601F
:1033400084BD84B5816084BD85B5826085BD85B549
:10335000816085BD80916E00816080936E001092C7
:103360008100809181008260809381008091810042
:1033700081608093810080918000816080938000D3
:103380008091B10084608093B1008091B000816031
:103390008093B00080917A00846080937A0080915D
:1033A0007A00826080937A0080917A0081608093B5
:1033B0007A0080917A00806880937A001092C10030
:1033C000E091A304F091A40430E020E040E06AE042
:1033D0008FE994E009958FE994E00E9447148FE902
:1033E00094E00E941D148111FACF60E08FE994E00F
:1033F0000E94AF0EE091A304F091A40430E020E01D
:1034000040E06BE08FE994E009958091EA049091A7
:10341000EB048558924009F495C0E5E8F2E0F0939A
:10342000EB04E093EA04E491E093FB04E6E8F2E0C5
:10343000E491E093FC04E7E8F2E0E491E093FD041A
:10344000E8E8F2E0E491E093FE04E9E8F2E0E491D8
:10345000E093FF04EAE8F2E0E491E0930005EBE892
:10346000F2E0E491E0930105ECE8F2E0E491E0930E
:103470000205EDE8F2E0E491E0930305EEE8F2E006
:10348000E491E0930405EFE8F2E0E491E0930505B0
:10349000E0E9F2E0E491E0930605E1E9F2E0E4918D
:1034A000E0930705E2E9F2E0E491E0930805E3E93F
:1034B000F2E0E491E0930905E4E9F2E0E491E093BD
:1034C0000A05E5E9F2E0E491E0930B0561E185E8A6
:1034D00092E00E94A30E90930D0580930C0563E18A
:1034E00085E892E00E94A30E90930F0580930E054D
:1034F00065E185E892E00E94A30E90931105809308
:1035000010058091EA049091EB04892BD9F0809109
:103510000805809314054091090540931505909185
:103520001305992379F0913009F0E6C090910A05CE
:10353000891714F49093140580910B05841714F4E3
:103540008093150581E0809313058091EA049091A2
:10355000EB04892BA1F0209108052093140590918C
:1035600009059093150580910A05281714F4809396
:10357000140580910B05891714F4809315050E949A
:10358000CD0589ED95E09093ED048093EC041092C5
:10359000FA0486E79BE090931B0580931A05E0915F
:1035A0007203F091730382E08083E0916E03F091E7
:1035B0006F031082E0917003F09171038FEC8083B0
:1035C00010927A03E0917603F091770386E080838E
:1035D000E0917403F0917503808180618083E091B4
:1035E0007403F0917503808188608083E091740397
:1035F000F0917503808180688083E0917403F0917D
:10360000750380818F7D808361E089E00E945E0781
:1036100060E083E00E945E0764E670E080E090E096
:103620000E94BF0785E090E0909351038093500380
:103630002AE030E030935303209352032FE030E030
:10364000309355032093540320E530E03093570323
:103650002093560390934703809346032EE130E076
:10366000309349032093480320E830E0309333033C
:103670002093320320E430E0309335032093340369
:1036800028E230E030933B0320933A0390933D03CC
:1036900080933C0330933F0320933E036FEB71E034
:1036A00082E693E00E94381382E693E00E948E1334
:1036B0007E013FE1E30EF11CCE0187969AAB89AB08
:1036C000DE019896BCABABABF8EE4F2EF3E05F2E6D
:1036D000612C712C0E94A0138AAFD0909904809124
:1036E0009204D11024C0882321F08AEA91E00E943C
:1036F000921309EF1FEF88C030910505209107054F
:10370000082E000C990B622F022E000C770B630F12
:10371000711D37FD7A95861797071CF4320F309389
:10372000140524170CF00ECF209315050BCF88231A
:1037300021F085E991E00E94921389E0E6E0F1E052
:10374000DE01989601900D928A95E1F7809192049E
:10375000882321F08CE791E00E94CC0680919304AD
:1037600090919404DC01ED91FC910280F381E02DB5
:1037700049E050E0BE01685D7F4F09950E94F20765
:1037800060939504709396048093970490939804A3
:1037900089E0F70111928A95E9F70CE010E0809139
:1037A000930490919404DC01ED91FC910084F185E7
:1037B000E02D099520919204892BC9F5222331F03F
:1037C0006CEE71E082E693E00E94381364E670E0EC
:1037D00080E090E00E94BF070150110901F780913D
:1037E0009204882321F08FE591E00E94921380914A
:1037F000930490919404DC01ED91FC910680F78193
:10380000E02D09950EEF1FEF109361030093600305
:1038100090919A048091920491112FC1882321F0F4
:103820008DEE91E00E9492138AEF9FEF85C12223D3
:1038300021F082E693E00E948E1310E080919304C1
:1038400090919404DC01ED91FC910084F185E02DD0
:10385000099518161906D4F5809193049091940453
:10386000DC01ED91FC910484F585E02D09958F3FF5
:1038700069F1111104C08AE391E00E94CC0667EC63
:1038800071E082E693E00E94381380919304909156
:103890009404DC01ED91FC910484F585E02D0995FB
:1038A000AC01990F660B770B20E182E693E00E9452
:1038B00042138091930490919404DC01ED91FC916A
:1038C0000284F385E02D09951D2DB8CF112321F039
:1038D00082E693E00E948E13809193049091940469
:1038E000DC01ED91FC910084F185E02D09950091BA
:1038F00093041091940418161906B4F55701D12CAD
:10390000C12C0E94F207F801608771878287938734
:10391000D801ED91FC910284F385E02DC801099551
:1039200097FF57C30E94F207F80120853185428531
:103930005385621B730B840B950B24813581468163
:103940005781621773078407950710F380919304DA
:1039500090919404DC01ED91FC910680F781E02DBB
:1039600009950CEF1FEF50CFD801ED91FC91068027
:10397000F781E02DC801F4CF882321F082EA90E09E
:103980000E949213FE01B09610E08191180F89A950
:103990009AA98E179F07C9F711958FA1811739F141
:1039A0008AE191E00E9492138AE091E00E94CC06A5
:1039B00060E170E08FA10E94B61389EF90E00E9451
:1039C000CC0660E170E0812F0E94B6138DEF8093EA
:1039D00091048091930490919404DC01ED91FC9109
:1039E0000680F781E02D09950DEF1FEF0DCF09A19E
:1039F00010E0102F00278AA1080F111D8BA18C52F7
:103A000080939104DCA080919204882399F08BEE3E
:103A100090E00E94CC06B80182E693E00E94D313A6
:103A20008AED90E00E94CC066AE070E080919104FB
:103A30000E94B61380919204882359F0DD20A9F0EA
:103A400080EC90E00E94CC0660E170E08D2D0E9439
:103A5000B6138091930490919404DC01ED91FC9154
:103A60000680F781E02D0995CFCE82EB90E00E9491
:103A7000CC0660E170E080E0EACF882321F084ED9D
:103A800091E00E94CC0680919204882331F06CEE84
:103A900071E082E693E00E94381380918F0490E0F9
:103AA000FC01EF58FD4F6491FC01E35AFD4FE49196
:103AB000F0E0EE0FFF1FE75BFD4F8591949100EE64
:103AC00011E52FE030E0462F0E9486176115710541
:103AD0008105910529F06F5F7F4F8F4F9F4F9F703A
:103AE000A30192010E946022211531054105510573
:103AF00009F4C9CFA0EDB7E00E945321605A7F407E
:103B000081099109A30192010E94602249015A0191
:103B100080919204882379F086EC91E00E94CC0693
:103B20002AE0B501A40182E693E00E94421382E6F6
:103B300093E00E948E13C40190935F0380935E0311
:103B40008091990481110BC080919204882321F007
:103B500087E092E00E94921389EF9FEF07C00E94D6
:103B6000A0138111E4C08091910490E090935D03D3
:103B700080935C03809160039091610390935B0359
:103B800080935A0369EC71E082E693E00E94381357
:103B9000609160037091610382E693E00E94D31309
:103BA00061ED71E082E693E00E94381360915E035C
:103BB00070915F0382E693E00E94D31368ED71E099
:103BC00082E693E00E94381360915C0370915D037C
:103BD00082E693E00E94D31360915A0370915B03D5
:103BE00082E693E00E94D3136CED75E082E693E0E9
:103BF0000E94D31361E070E080915A0390915B03BF
:103C00008C3D954014F070E060E082E693E00E9405
:103C1000D31380915A0390915B0361E08D3D9540F1
:103C20000CF460E089E00E9430078FE994E00E9484
:103C3000471420915C0330915D033CAF2BAF809122
:103C40005A0390915B0398AF8FAB8AE0E0E5F3E015
:103C5000DE01559601900D928A95E1F78AE0E6E43F
:103C6000F3E0DE011B9601900D928A95E1F78AE060
:103C7000ECE3F3E0DE01119601900D928A95E1F7F5
:103C80009AAD992309F468C060EE71E0C7010E9403
:103C9000D614A2E3A0931C05A0931D05C7010E94A2
:103CA0001411C7010E94CB13EFA9F8ADEC3DF5400C
:103CB0002CF510913A03A090340380903203012F29
:103CC0000A0D0F5F212F280D2F5F4A2D411B682DF4
:103CD000611B8FE994E00E94060C882379F0DD24B3
:103CE000D394D11AC12EC194CC0C2A2D482D612F0A
:103CF00080E00E940C0D00E00117E0F08FE994E0F5
:103D00000E941D14811195CF68EB7BE080E090E06C
:103D10000E94BF0780E090E0892B09F4DBCC0E9471
:103D20004906882309F4D6CC0E940000D3CC8BEF3F
:103D30009FEF1CCFD7FC04C01150C394C394DC0C7C
:103D40000F5F802F880F8F5FD80E2A2D482D612F8F
:103D5000802F0E940C0DD0CFCD882F88388CD98C25
:103D60008B8D9C8D9EAB8DAB6EEE71E0C7010E947A
:103D7000D614C0921C05C1010A9780931D05C70186
:103D80000E941411C7010E94CB13AFA9B8ADBD01A9
:103D9000BB0F880B990B0E945A2020E030E84BEBB8
:103DA00054E40E94A4214B015C016DA97EA96250DC
:103DB0007109072E000C880B990B0E945A209B0159
:103DC000AC01C501B4010E9495200E941622B62EB6
:103DD000122D41E0420D882483948C0C0EEF0D0DC2
:103DE000040F282D260F682D8FE994E00E94060C01
:103DF000AD2C1D0D1F5F8111D5C01D2D120DADA85D
:103E0000AC0C012F2A2D422D6C2D8FE994E00E94DD
:103E1000060CBB24BA94BA0C882309F44EC00CEFEC
:103E20000A0D42E023E0A22EA20C6A2D33E0832E7D
:103E30008C0C882D0E94C20D41E06A2D802F0E94BB
:103E4000C20D44E05CEFA52EA10E6A2D882D0E94C4
:103E5000C20D48E06A2D802F0E94C20DEAEFED0DE1
:103E6000E9AF8DA986508330B0F0ADA8F8EFAF0E62
:103E700000E02A2D422D94E0892E8C0C682D8FE9CC
:103E800094E00E94970C2A2D4FEF410F682D8FE987
:103E900094E00E94970C29AD233078F008EF0D0DC7
:103EA000402F84E0D82ED20C6D2D8C2D0E94010D58
:103EB000402F6D2D8B2D0E94010D1D5FDB2C0DEF12
:103EC000020D101708F478C0101373C0C12C1B2DFD
:103ED000D02E0B2D0F3F09F40EEF011708F06FC025
:103EE0000B851C85DD846AEF71E0C7010E94D61442
:103EF00000931C05D0921D05C7010E941411C70133
:103F00000E94CB136FA978ADCE0188960E948114D0
:103F100068A579A5C7010E94D6140E5C1F4F0093B7
:103F20001C05D0921D05C7010E941411C7010E94F3
:103F3000CB13CE0188960E94CB1309811A81DB80B6
:103F400063E072E0C7010E94D61400931C05D09272
:103F50001D05C7010E941411C7010E94CB136BAD50
:103F60007CADCE0188960E94811468A579A5C70111
:103F70000E94D6140E5C1F4F00931C05D0921D05A5
:103F8000C7010E941411C7010E94CB13CE0188966D
:103F90000E94CB13B3CE00E02B2D682D8FE994E067
:103FA0000E94970C412F4A19AA94B1E0AB12F3CFAB
:103FB00024CF812F102F082FCC24C3948BCF6D2DAD
:103FC000812FCC2011F0612F8D2D0E945B0D1F5F82
:103FD00084CFD5018D935D01BFEFCB1ADB0AE9E0F9
:103FE000CE16D10409F08DCC809192048823E9F09B
:103FF00084E391E00E94CC068701F80141918F0192
:1040000050E070E060E020E182E693E00E9442131D
:1040100081E391E00E94CC062BA93CA9201731072F
:1040200061F780E391E00E94921380919204909155
:1040300099049111A1CC882321F086E890E00E9498
:10404000921319EFAACCBB274A3031F4992322F4FA
:10405000BDE2909581959F4F0C942F20BB27FB01CB
:104060005527AA27880F991FAA1FA41710F0A41B71
:1040700083955051B9F7A05DAA3308F0A95DA193CB
:10408000009779F7B111B1931192CB010C944820AC
:10409000DC01FC01672F71917723E1F7329704C0AF
:1040A0007C916D9370836291AE17BF07C8F308953A
:1040B000E89409C097FB3EF49095809570956195C2
:1040C0007F4F8F4F9F4F9923A9F0F92F96E9BB2778
:1040D0009395F695879577956795B795F111F8CFF4
:1040E000FAF4BB0F11F460FF1BC06F5F7F4F8F4F5F
:1040F0009F4F16C0882311F096E911C0772321F055
:104100009EE8872F762F05C0662371F096E8862FEC
:1041100070E060E02AF09A95660F771F881FDAF743
:10412000880F9695879597F908950E94A8200C947A
:1041300019210E940B2138F00E94122120F09523B2
:1041400011F00C9402210C94082111240C944D219F
:104150000E942A2170F3959FC1F3950F50E0551FDF
:10416000629FF001729FBB27F00DB11D639FAA27CC
:10417000F00DB11DAA1F649F6627B00DA11D661F1B
:10418000829F2227B00DA11D621F739FB00DA11D3C
:10419000621F839FA00D611D221F749F3327A00DF6
:1041A000611D231F849F600D211D822F762F6A2F92
:1041B00011249F5750409AF0F1F088234AF0EE0FF7
:1041C000FF1FBB1F661F771F881F91505040A9F724
:1041D0009E3F510580F00C9402210C944D215F3FCD
:1041E000E4F3983ED4F3869577956795B795F79560
:1041F000E7959F5FC1F7FE2B880F911D96958795D8
:1042000097F9089597F99F6780E870E060E0089556
:104210009FEF80EC089500240A94161617061806DE
:104220000906089500240A941216130614060506BA
:104230000895092E0394000C11F4882352F0BB0F4B
:1042400040F4BF2B11F460FF04C06F5F7F4F8F4FAE
:104250009F4F089557FD9058440F551F59F05F3FE9
:1042600071F04795880F97FB991F61F09F3F79F098
:1042700087950895121613061406551FF2CF46951A
:10428000F1DF08C0161617061806991FF1CF86959C
:104290007105610508940895E894BB276627772780
:1042A000CB0197F908950E949521A59F900DB49F89
:1042B000900DA49F800D911D112408952F923F927F
:1042C0004F925F926F927F928F929F92AF92BF9226
:1042D000CF92DF92EF92FF920F931F93CF93DF93D2
:1042E000CDB7DEB7CA1BDB0B0FB6F894DEBF0FBE2F
:1042F000CDBF09942A88398848885F846E847D847C
:104300008C849B84AA84B984C884DF80EE80FD807D
:104310000C811B81AA81B981CE0FD11D0FB6F894F3
:10432000DEBF0FBECDBFED010895A29FB001B39FC8
:10433000C001A39F700D811D1124911DB29F700DAE
:10434000811D1124911D08950E94B8210C941921FA
:104350000E94122158F00E940B2140F029F45F3F87
:1043600029F00C94022151110C944D210C94082138
:104370000E942A2168F39923B1F3552391F3951BE9
:10438000550BBB27AA2762177307840738F09F5F76
:104390005F4F220F331F441FAA1FA9F335D00E2EE3
:1043A0003AF0E0E832D091505040E695001CCAF750
:1043B0002BD0FE2F29D0660F771F881FBB1F261713
:1043C00037074807AB07B0E809F0BB0B802DBF01EA
:1043D000FF2793585F4F3AF09E3F510578F00C94B9
:1043E00002210C944D215F3FE4F3983ED4F386956F
:1043F00077956795B795F7959F5FC9F7880F911DDA
:104400009695879597F90895E1E0660F771F881FC5
:10441000BB1F621773078407BA0720F0621B730B78
:10442000840BBA0BEE1F88F7E09508950E941D22B9
:104430006894B1110C944D2108950E94322188F0A6
:104440009F5798F0B92F9927B751B0F0E1F0660F58
:10445000771F881F991F1AF0BA95C9F714C0B13099
:1044600091F00E944C21B1E008950C944C21672FEB
:10447000782F8827B85F39F0B93FCCF386957795C8
:104480006795B395D9F73EF49095809570956195B1
:104490007F4F8F4F9F4F089597FB072E16F4009480
:1044A00007D077FD09D00E94822207FC05D03EF498
:1044B000909581959F4F0895709561957F4F0895D0
:1044C000A1E21A2EAA1BBB1BFD010DC0AA1FBB1F18
:1044D000EE1FFF1FA217B307E407F50720F0A21B8A
:1044E000B30BE40BF50B661F771F881F991F1A94F7
:1044F00069F760957095809590959B01AC01BD0121
:10450000CF010895AA1BBB1B51E107C0AA1FBB1F07
:10451000A617B70710F0A61BB70B881F991F5A954F
:10452000A9F780959095BC01CD010895EE0FFF1F6E
:104530000590F491E02D09940F931F93CF93DF938F
:104540008230910510F482E090E0E0912005F09136
:10455000210530E020E0B0E0A0E0309799F421158B
:10456000310509F44AC0281B390B24303105D8F530
:104570008A819B816115710589F1FB019383828397
:10458000FE0111C0408151810281138148175907F2
:10459000E0F04817590799F4109761F012960C93C0
:1045A000129713961C933296CF01DF91CF911F91F2
:1045B0000F9108950093200510932105F4CF211544
:1045C000310551F04217530738F0A901DB019A0178
:1045D000BD01DF01F801C1CFEF01F9CF90932105B3
:1045E00080932005CDCFFE01E20FF31F81939193BD
:1045F0002250310939832883D7CF20911E0530916D
:104600001F05232B41F420910201309103013093C7
:104610001F0520931E0520910001309101012115F5
:10462000310541F42DB73EB7409104015091050189
:10463000241B350BE0911E05F0911F05E217F307CF
:10464000A0F42E1B3F0B2817390778F0AC014E5F02
:104650005F4F2417350748F04E0F5F1F50931F051B
:1046600040931E05819391939FCFF0E0E0E09CCFB3
:10467000CF93DF930097E9F0FC0132971382128207
:10468000A0912005B0912105ED0130E020E01097C8
:10469000A1F420813181820F931F20911E0530915A
:1046A0001F052817390709F061C0F0931F05E09333
:1046B0001E05DF91CF910895EA01CE17DF07E8F5D7
:1046C0004A815B819E0141155105B1F7E901FB83E8
:1046D000EA8349915991C40FD51FEC17FD0761F486
:1046E000808191810296840F951FE90199838883C7
:1046F000828193819B838A83F0E0E0E012968D9122
:104700009C9113970097B9F52D913C911197CD018C
:104710000296820F931F20911E0530911F052817C6
:10472000390739F6309751F510922105109220057E
:10473000B0931F05A0931E05BCCFD383C2834081D5
:104740005181840F951FC817D90761F44E5F5F4FE1
:1047500088819981480F591F518340838A819B81A9
:10476000938382832115310509F0B0CFF0932105A1
:10477000E09320059ECFFD01DC01C0CF13821282A1
:10478000D7CFB0E0A0E0E7ECF3E20C9460218C011D
:10479000009751F4CB010E949C228C01C801CDB737
:1047A000DEB7E0E10C947C21FC01E60FF71F9C01D1
:1047B00022503109E217F30708F49DC0D901CD91C9
:1047C000DC911197C617D70798F0C530D10530F3A3
:1047D000CE0104978617970708F3C61BD70B2297BD
:1047E000C193D1936D937C93CF010E943823D6CF90
:1047F0005B01AC1ABD0A4C018C0E9D1EA0912005D8
:10480000B0912105512C412CF12CE12C109731F560
:1048100080911E0590911F058815990509F05CC0CF
:104820004616570608F058C080910001909101018A
:10483000009741F48DB79EB7409104015091050156
:10484000841B950BE817F90708F055C0F0931F0576
:10485000E0931E05F90171836083A0CF8D919C9137
:10486000119712966C90129713967C901397A81537
:10487000B90559F56C0142E0C40ED11CCA14DB0421
:1048800020F1AC014A195B09DA011296159780F004
:104890006282738251834083D9016D937C93E114CA
:1048A000F10471F0D7011396FC93EE93129776CF33
:1048B00022968C0F9D1FF90191838083F301EFCF26
:1048C000F0932105E093200569CF4816590608F4B6
:1048D0002C017D01D3019ACFCB010E949C227C0147
:1048E000009749F0AE01B8010E947E24C8010E94E1
:1048F0003823870153CF10E000E050CFFB01DC01EB
:1049000002C001900D9241505040D8F70895DC014B
:1049100001C06D9341505040E0F70895FB01DC0168
:1049200001900D920020E1F70895F894FFCF000068
:1049300022058000FF01860000000000791815A004
:1049400015C019FF1815A115C819FF1815AE19FFC4
:104950001815AF19FF1815AE15D5168015A8163FF6
:1049600015D316001540158D16141520160015A127
:1049700015C815DA1612158116CF15D916F115DBE3
:104980001640152E15A415A619FF0001140A64641B
:10499000323200127A0000042896100800008000CD
:1049A0004000000000007F06DF050C06E7063D061C
:1049B0001B062F06000000006A093D093513160882
:1049C000360923091409000000001708DF05351314
:1049D000160873088B08FE07000000001D11EC107C
:1049E00035133413C30B2D0CB70B0D0A0070726511
:1049F00068656174002000554152543A2009005006
:104A0000574D3A20090054656D703A2009004865F9
:104A1000697A7420617566202E2E2E0053C3B672FB
:104A2000656E7320434F3200434F322070706D3AF1
:084A30000054656D703A0000AE
:107800000C94343C0C94513C0C94513C0C94513CE1
:107810000C94513C0C94513C0C94513C0C94513CB4
:107820000C94513C0C94513C0C94513C0C94513CA4
:107830000C94513C0C94513C0C94513C0C94513C94
:107840000C94513C0C94513C0C94513C0C94513C84
:107850000C94513C0C94513C0C94513C0C94513C74
:107860000C94513C0C94513C11241FBECFEFD8E036
:10787000DEBFCDBF11E0A0E0B1E0ECE9FFE702C060
:1078800005900D92A230B107D9F712E0A2E0B1E065
:1078900001C01D92AD30B107E1F70E942D3D0C945F
:1078A000CC3F0C94003C982F959595959595959582
:1078B000905D8F708A307CF0282F295A8091C0000B
:1078C00085FFFCCF9093C6008091C00085FFFCCF60
:1078D0002093C6000895282F205DF0CF982F809127
:1078E000C00085FFFCCF9093C6000895EF92FF92F1
:1078F0000F931F93EE24FF2487018091C00087FD22
:1079000017C00894E11CF11C011D111D81E4E8164B
:1079100082E4F8068FE0080780E0180770F3E09132
:107920000401F091050109958091C00087FFE9CF1E
:107930008091C6001F910F91FF90EF9008950E94D3
:10794000763C982F8091C00085FFFCCF9093C600B5
:1079500091362CF490330CF09053892F089597555D
:10796000892F08951F930E949F3C182F0E949F3CCF
:107970001295107F810F1F9108951F93182F882350
:1079800021F00E94763C1150E1F71F9108951F935A
:10799000182F0E94763C803249F0809103018F5F5E
:1079A000809303018530C1F01F9108958091C0003C
:1079B00085FFFCCF84E18093C6008091C00085FFE5
:1079C000FCCF1093C6008091C00085FFFCCF80E102
:1079D0008093C6001F910895E0910401F091050184
:1079E00009951F9108950E94763C803241F0809164
:1079F00003018F5F80930301853081F008958091AA
:107A0000C00085FFFCCF84E18093C6008091C00058
:107A100085FFFCCF80E18093C6000895E0910401CA
:107A2000F09105010995089540E951E08823A1F0FE
:107A30002D9A28EE33E0FA013197F1F721503040CA
:107A4000D1F72D9828EE33E0FA013197F1F7215064
:107A50003040D1F7815061F708953F924F925F9285
:107A60006F927F928F929F92AF92BF92CF92DF924E
:107A7000EF92FF920F931F93CF93DF93000080E16B
:107A80008093C4001092C50088E18093C10086E015
:107A90008093C2005098589A259A81E00E94143D24
:107AA00024E1F22E9EE1E92E85E9D82E0FE0C02ECA
:107AB00010E1B12EAA24A394B1E49B2EA6E58A2E50
:107AC000F2E57F2EE0E26E2E79E4572E63E5462E36
:107AD00050E5352E0E94763C8033B1F18133B9F107
:107AE000803409F46FC0813409F476C0823409F41B
:107AF00085C0853409F488C0803531F1823521F1A3
:107B0000813511F1853509F485C0863509F48DC0BC
:107B1000843609F496C0843709F403C1853709F423
:107B200072C1863709F466C0809103018F5F80932C
:107B30000301853079F6E0910401F0910501099582
:107B40000E94763C803351F60E94F33CC3CF0E94E2
:107B5000763C803249F78091C00085FFFCCFF092DF
:107B6000C6008091C00085FFFCCF9092C600809136
:107B7000C00085FFFCCF8092C6008091C00085FFC9
:107B8000FCCF7092C6008091C00085FFFCCF609250
:107B9000C6008091C00085FFFCCF5092C600809146
:107BA000C00085FFFCCF4092C6008091C00085FFD9
:107BB000FCCF3092C6008091C00085FFFCCFB09210
:107BC000C60088CF0E94763C863808F4BDCF0E945C
:107BD000763C0E94F33C7ECF0E94763C803809F4CC
:107BE0009CC0813809F40BC1823809F43CC1883942
:107BF00009F48FC080E00E94C73C6CCF84E10E94F2
:107C0000BD3C0E94F33C66CF85E00E94BD3C0E94D3
:107C1000F33C60CF0E94763C809306010E94763C44
:107C2000809307010E94F33C55CF0E94763C80333D
:107C300009F41DC183E00E94BD3C80E00E94C73C66
:107C400049CF0E94763C809309020E94763C809343
:107C5000080280910C028E7F80930C020E94763C79
:107C6000853409F415C18091080290910902892B8D
:107C700089F000E010E00E94763CF801E85FFE4FDA
:107C800080830F5F1F4F80910802909109020817AF
:107C9000190788F30E94763C803209F045CF809125
:107CA0000C0280FF01C16091060170910701660F0F
:107CB000771F7093070160930601A0910802B091AD
:107CC00009021097C9F0E8E0F1E09B01AD014E0F09
:107CD0005F1FF999FECF32BD21BD819180BDFA9A17
:107CE000F99A2F5F3F4FE417F50799F76A0F7B1F4B
:107CF00070930701609306018091C00085FFFCCF5F
:107D0000F092C6008091C00085FFFCCFB092C60003
:107D1000E1CE83E00E94C73CDDCE82E00E94C73CFA
:107D2000D9CE0E94763C809309020E94763C8093D3
:107D300008028091060190910701880F991F909386
:107D40000701809306010E94763C853409F4A6C0A1
:107D500080910C028E7F80930C020E94763C8032D0
:107D600009F0B8CE8091C00085FFFCCFF092C6002C
:107D7000609108027091090261157105B9F140E046
:107D800050E080910C02A82FA170B82FB27011C0E2
:107D9000BB2309F45CC0E0910601F0910701319624
:107DA000F0930701E09306014F5F5F4F46175707B7
:107DB000E8F4AA2369F3F999FECF209106013091E6
:107DC000070132BD21BDF89A90B58091C00085FFB2
:107DD000FCCF9093C6002F5F3F4F30930701209355
:107DE00006014F5F5F4F4617570718F38091C00099
:107DF00085FDE5CE8091C00085FFF8CFE0CE81E023
:107E00000E94C73C67CE0E94763C803209F08CCE3F
:107E10008091C00085FFFCCFF092C6008091C00029
:107E200085FFFCCFE092C6008091C00085FFFCCFAB
:107E3000D092C6008091C00085FFFCCFC092C600E2
:107E40008091C00085FFFCCFB092C60043CEE09188
:107E50000601F091070194918091C00085FFFCCF4D
:107E60009093C6009CCF80E10E94C73C33CE0E9415
:107E7000763C0E94763C182F0E94763C112309F430
:107E800083C0113009F484C08FE00E94C73C22CE29
:107E900080910C02816080930C02E5CE80910C02EF
:107EA000816080930C0259CF809107018823880F4D
:107EB000880B8A2180930B02809106019091070123
:107EC000880F991F90930701809306018091080203
:107ED00080FF09C080910802909109020196909359
:107EE000090280930802F894F999FECF1127E091D6
:107EF0000601F0910701C8E0D1E08091080290915D
:107F00000902103091F40091570001700130D9F34B
:107F100003E000935700E89500915700017001308D
:107F2000D9F301E100935700E89509901990009169
:107F3000570001700130D9F301E000935700E89534
:107F40001395103498F011270091570001700130FB
:107F5000D9F305E000935700E895009157000170B0
:107F60000130D9F301E100935700E895329602976A
:107F700009F0C7CF103011F00296E5CF112480919F
:107F8000C00085FFB9CEBCCE8EE10E94C73CA2CD19
:0E7F900085E90E94C73C9ECDF894FFCF80008B
:00000001FF
